:020000040000FA
:10000000F00200200D03000015030000170300009C
:10001000190300001B0300001D0300000000000086
:100020000000000000000000000000001F030000AE
:10003000210300000000000023030000250300004E
:1000400027030000290300002B0300002D030000FC
:100050002F030000310300003303000035030000CC
:1000600037030000390300003B0300003D0300009C
:100070003F0300004103000043030000450300006C
:1000800047030000490300004B0300004D0300003C
:100090004F0300005103000053030000550300000C
:1000A00057030000590300005B0300005D030000DC
:1000B0005F030000610300006303000065030000AC
:1000C00067030000690300006B0300006D0300007C
:1000D0006F0300007103000073030000750300004C
:1000E0007703000079030000000000007B0300009C
:1000F0007D0300007F0300008103000083030000F4
:100100008503000087030000890300008B030000C3
:1001100000000000000000008D0300008F030000BD
:100120009103000093030000950300009703000073
:10013000990300009B0300009D0300009F03000043
:1001400000000000000000000000000000000000AF
:10015000A1030000A3030000A5030000A703000003
:10016000000000000000000000000000000000008F
:10017000000000000000000000000000000000007F
:10018000000000000000000000000000000000006F
:10019000000000000000000000000000000000005F
:1001A000000000000000000000000000000000004F
:1001B000A9030000AB030000AD030000AF03000083
:1001C000B1030000B3030000B5030000B703000053
:1001D000B9030000BB030000BD030000BF03000023
:1001E000C1030000C3030000C503000000000000BD
:1001F00000000000C7030000C9030000CB0300009B
:10020000CD030000CF03000000000000000000004C
:10021000D1030000D3030000D5030000D703000082
:10022000D9030000DB030000DD030000DF03000052
:10023000E1030000E3030000E5030000E703000022
:10024000E9030000EB030000ED030000EF030000F2
:10025000F1030000F3030000F5030000F7030000C2
:10026000F9030000FB030000FD03000000F002F8AA
:1002700000F03CF80AA090E8000C82448344AAF104
:100280000107DA4501D100F031F8AFF2090EBAE802
:100290000F0013F0010F18BFFB1A43F001031847BA
:1002A000B04D0000C04D00000023002400250026B2
:1002B000103A28BF78C1FBD8520728BF30C148BFC9
:1002C0000B6070471FB504F0BCFC00F077FC040025
:1002D0000020002103F014FE401C6060002000217B
:1002E00003F0F8FDE0601FBD10B510BD00F072F91D
:1002F0001146FFF7E7FF01F0B5F900F015FC03B474
:10030000FFF7F2FF03BC00F00DFF00003F488047FD
:100310003F480047FEE7FEE7FEE7FEE7FEE7FEE7B1
:10032000FEE7FEE7FEE7FEE7FEE7FEE7FEE7FEE7A5
:10033000FEE7FEE7FEE7FEE7FEE7FEE7FEE7FEE795
:10034000FEE7FEE7FEE7FEE7FEE7FEE7FEE7FEE785
:10035000FEE7FEE7FEE7FEE7FEE7FEE7FEE7FEE775
:10036000FEE7FEE7FEE7FEE7FEE7FEE7FEE7FEE765
:10037000FEE7FEE7FEE7FEE7FEE7FEE7FEE7FEE755
:10038000FEE7FEE7FEE7FEE7FEE7FEE7FEE7FEE745
:10039000FEE7FEE7FEE7FEE7FEE7FEE7FEE7FEE735
:1003A000FEE7FEE7FEE7FEE7FEE7FEE7FEE7FEE725
:1003B000FEE7FEE7FEE7FEE7FEE7FEE7FEE7FEE715
:1003C000FEE7FEE7FEE7FEE7FEE7FEE7FEE7FEE705
:1003D000FEE7FEE7FEE7FEE7FEE7FEE7FEE7FEE7F5
:1003E000FEE7FEE7FEE7FEE7FEE7FEE7FEE7FEE7E5
:1003F000FEE7FEE7FEE7FEE7FEE7FEE7FEE70000BA
:1004000004480549034A054B7047000049120000A3
:100410006D020000F0000020F0020020F00000203B
:1004200000F066B870477047704710B500F082F86A
:10043000006810BD10B5044600F07CF8046010BDE3
:100440000FB40B0010B54FF000048AB00FA9009153
:100450000E99CC60234C7C44234A7A44CDE9064271
:1004600000D004236FF00042CDE901321F4A7A44E4
:100470006B4608920246002004F058FC0AB010BCFB
:100480005DF814FBF0B507464FF0FF301E461546E9
:100490000C463B4685B06A460091CDE901013146E4
:1004A0000020049004A8FFF7CBFF049903466018CE
:1004B00025B109B1024600E022462A6000290ED08B
:1004C000002B02DD0099814209D03B466A46314645
:1004D000001B0094CDE9010404A8FFF7B1FF05B0AB
:1004E000F0BD0000F50000000F010000CB0000008F
:1004F0002DE9F04115460E46040002D12C6804B9DE
:100500000BA4204600F053F80444207870B127462D
:100510003146384600F03BF80444207810B1002002
:1005200004F8010B38462C60BDE8F0810027F9E79C
:1005300000000000004870470000002010B504468D
:1005400000F06EF80068005D00F0010010BD426828
:1005500042B1016811F8013B23B1521EC0E90012FB
:10056000184670470121C160881E704742685AB121
:10057000C368016843B983688B4205D0491E521C89
:10058000C0E90012002070474FF0FF30704730B5CF
:1005900003461D781DB10A4603E0AC4201D1181A8A
:1005A00030BD12F8014B002CF7D15B1CF1E730B5E0
:1005B00003461D783DB10A4612F8014B1CB1AC420E
:1005C000FAD15B1CF5E7181A30BD000000487047EF
:1005D000000000207546FFF7F9FFAE4605006946AA
:1005E000534620F00700854618B020B5FFF708FFF6
:1005F000BDE820404FF000064FF000074FF0000824
:100600004FF0000BAC46ACE8C009ACE8C009ACE860
:10061000C009ACE8C00921F007018D467047000011
:1006200010B500F0CBFA001D10BD00BFD53800009A
:100630002DE9FF4F06468BB00878FF2806D0491CED
:100640002D2805D000244FF0000908E000200CE020
:100650000124F8E709EB8903491C00EB43090878FA
:10066000FF28F7D114B1C9F10000814610780025A8
:100670002C46AA4629462D2801D02B2804D1521CED
:100680002D2813D0002082468B461078FF280FD0EB
:100690004FF0000C0A21521CA5FB017804FB0181DC
:1006A00005FB0C11C5194BEB0104EEE70120EAE74D
:1006B000002108464FF00000BAF1000F02D000EB15
:1006C00080004008C0F38157012F01DD4FF0FF3754
:1006D0000E9955EA040009EB01080BD04FF002090E
:1006E00018F5FA7F16DA4FEACA70002F706008DD3D
:1006F000012007E04FEACA70C6E900B00FB0BDE8BC
:10070000F08F00203060FFF715FFC0F8009018212F
:10071000084616E0B8F5FA7F18DD002F02DAF74830
:10072000784401E0F6487844D0E90010C6E90010AA
:1007300040EACA707060FFF7FDFEC0F80090142117
:1007400008460FB0BDE8F04F04F08DBA002108460E
:100750004FF00000B8F10001099002DAC7F1000281
:1007600000E03A4601DAC8F1000106A800F03EFABE
:1007700006AB93E8070003AB83E8070044F23E00B2
:100780005BEA04010090584604D144F21E012C4655
:100790005D460091210C0904014306D1009924040F
:1007A00044EA15442D041039009104F07F410143BF
:1007B00006D10099240244EA15642D0208390091FB
:1007C00004F07041014306D10099240144EA1574F4
:1007D0002D01091F009104F04041014306D1009909
:1007E000A40044EA9574AD00891E009104F0004114
:1007F000084304D100986D196441401E00904FF0E9
:1008000001033A466846B8F1000FCDE9014503A956
:1008100002DD01F080FA01E001F053FABAF1000FB5
:1008200004460D4601D084F00044002108464FF0F4
:100830000000099940F2FF77484010F00C0F07D1F3
:1008400024F00040284303D0C4F30A50B84212D128
:10085000FFF770FEC0F80090C4F30A50B8420AD106
:10086000A8487844D0E90010C6E9001004F000411F
:100870000843706042E7C6E900543FE72DE9FF4FA7
:100880001F464FF0000A4FF0FF38454691B0D7E9B8
:100890000146CDF83CA000F091F9C0680168405CC9
:1008A0001090B96912986D1C8847396A814688474B
:1008B0000028F6D1B9F1FF3F0AD0002E24F4D0640D
:1008C00011DDB9F12B0F08D0B9F12D0F0BD102E0DA
:1008D000404615B013E744F48064B96912986D1C62
:1008E0008847761E8146600504A901D52D2000E0C9
:1008F0002B20002E01F1010B0DF130088DF81000B6
:100900003FDDB9F1690F08D0B9F1490F05D0B9F150
:100910006E0F02D0B9F14E0F1CD13B4601A80095D5
:1009200080E85002DDE912126FF0020004F002FAD2
:10093000C11CCED10EE0B96912986D1C8847814662
:100940001398761E44F4007405600F98401C002E26
:100950000F9016DDB9F1300FEDD0B9F1780F02D05C
:10096000B9F1580F0DD10F9801280AD13B46CDE9B6
:100970000054DDE91212001F029604F0D9F9C11CDF
:10098000A7D1109989453ED144F0800406E013991F
:10099000681CAAF1010A44F400740860B9696D1C6E
:1009A0001298761E884730288146F0D02BE01099A7
:1009B000894505D1200603D4761E44F0800418E052
:1009C000484603F0ECF908B3761E0DF12302934577
:1009D000A9F1300044F4007406D20BF8010B200694
:1009E00007D5AAF1010003E0200602D40AF10100B4
:1009F0008246A00502D51399681C0860B96912984F
:100A00006D1C88478146002ED1DC53E0002E51DD5D
:100A1000B9F1650F02D0B9F1450F4BD1A00549D509
:100A2000B9696D1C1298761E24F440748847002E14
:100A300081460CDD2B2804D0B9F12D0F07D144F4E9
:100A40008074B96912986D1C8847761E8146E0054E
:100A500001D52D2100E02B2108F8011BCDF80080E5
:100A600021E0761E0DF13901884544F400740CD262
:100A7000A9F1300010F0FF0088F8000002D10099C1
:100A8000884509D908F1010806E0E00501D51E48AE
:100A900001E042F20F708246B96912986D1C8847D6
:100AA000814613980560002E04DD484603F077F96F
:100AB0000028D6D1F96912988847FF2053468BF851
:100AC000000088F8000000200A900B9004AA0CA9EE
:100AD0000AA8FFF7ADFDA00502D46FF00100F8E60B
:100AE00014F0240F12D0E0071CD13868DDE90A1297
:100AF000031D3B600068C0E9001213E04449000098
:100B000036490000FA470000F1D8FFFF0AA96846FD
:100B100003F032F9E00705D13868009A011D396009
:100B2000006802602846D4E610B50446AFF30080A2
:100B30002046BDE81040FFF7E2BB000000000000C7
:100B400030B44FF0013C50F8042B51F8043BCCFA80
:100B500052F4D51A20D1FCB950F8042B51F8043BBB
:100B6000CCFA52F4D51A17D1B4B950F8042B51F875
:100B7000043BCCFA52F4D51A0ED16CB950F8042BC0
:100B800051F8043BCCFA52F4D51A05D1002CDAD036
:100B900030BC4FF00000704729BAB1FA81F111F072
:100BA0001801D1F120008440F2D1CA40CB4012F0AC
:100BB000FF0213F0FF0330BCD01A704700487047A3
:100BC00020000020B2F120030AD5C2F1200301FA6F
:100BD00002F120FA03F341EA030100FA02F0704740
:100BE00000FA03F14FF00000704700002DE9F047D4
:100BF000814616468AB0354878440DC88DE80D0008
:100C000032487844801C03AC0DC884E80D0041F6DE
:100C10009B300844372190FBF1F290FBF1F5A5F1F0
:100C2000800501FB12041B3C02D56442012000E058
:100C30000020DFF898A080460027FA44AAF1BE0AF7
:100C40000EE0E0070AD03246684607EB4701012371
:100C50000AEB810101F04AF88DE8070064107F1C5F
:100C6000002CEED1194F7F44AE3F19E0E80715D0B4
:100C700007EB04100DF1180A90E80E008AE80E0048
:100C8000C068F04201D1981908903246012306A9A4
:100C900003A801F02BF803AB83E807006D10641C78
:100CA000002DE3D14FF0010332466946B8F1000F41
:100CB00003A802D000F0F0FF01E001F017F8C9E945
:100CC0000001C9F808200AB0BDE8F08738440000E8
:100CD0002DE9FF4F1F464FF03C0987B04FF000420F
:100CE000DDE9141001F10108DDF858A002EA4050D6
:100CF0000390002005908346054604460490B96998
:100D0000461E08988847AAF1010A0290BAF1000F1E
:100D10003BDD02982E2815D0102100F009FA00289A
:100D20002EDB4FF0010B0599014317D0B9F1000FED
:100D30000BDB4A46C117FFF745FF05430C43A9F1FA
:100D4000040905E0012004900BE008B145F001051D
:100D500001200590049820B9361D02E0049800B1E6
:100D6000361FB969089808F101088847BBF1000FE0
:100D7000AAF1010A0290C9D00999C1F80080C5E71B
:100D80000298702808D0502806D0F969089888473A
:100D9000BBF1000F14D04FE0002002900120BBF106
:100DA000000F049009D0B969089808F10108884734
:100DB000AAF10109B9F1000F07DCF9690898884721
:100DC0006FF001000BB0BDE8F08F2B2804D02D2868
:100DD0000CD14FF0FF300490B969089808F1010870
:100DE0008847A9F10109B9F1000FE6DD411CE4D003
:100DF0000A2100F09DF90028DFDB029908F10108C3
:100E000001EB810100EB41000290B9690898884725
:100E10000A2100F08DF9099AA9F10109B9F1000F31
:100E2000C2F8008001DD0028E7DAF96908988847F0
:100E30000499029800FB016655EA040004D004F00E
:100E40004041090002D006E0039898E0A40044EA7B
:100E50009574AD00B61E04F00041080002D16D1972
:100E60006441761E159810F0240F03D04FF00B0943
:100E70005C4803E04FF028096FF07D00824656453C
:100E800007DAAAEB06018944B9F1410F01DD4FF001
:100E9000410901200021A9F10102FFF793FE02465A
:100EA00028400B462140084301D0012100E00021E9
:100EB000501E029143F1FF3128402140084301D0E8
:100EC000012000E000200299834651EA0B014FD037
:100ED000002108464FF00000039900F4400039B1AA
:100EE00000EB80004FF4400100EBD07001EA60009D
:100EF0008015012802DD4FF0FF3000E013D0401CC8
:100F000036D0029860B3BBF1000F0CD14A460120E5
:100F10000021FFF757FE28402140084301D001205F
:100F200000E00020E0B101204A460021FFF74AFE20
:100F3000034640190A4661412D1A8C4111D3B9F17B
:100F4000400F09DD159810F0240F02D0AAF13406E5
:100F500003E0AAF1170600E0761C00254FF00044DC
:100F600006E05B1E42F1FF3220EA030521EA02049B
:100F7000CAF10100B04206DA1B4903980843019008
:100F8000002000900EE0039AC4F3D321E80A0A433C
:100F9000164940EA44500A433146CDE9000268460A
:100FA00002F0F3FE159810F0240F0BD01598C0072F
:100FB00015D13868DDE90012031D3B600068C0E907
:100FC00000120CE002A8694602F0D6FE1598C00790
:100FD00005D13868029A011D3960006802604046F8
:100FE000F0E6000002FCFFFF0000F07F0000F03F91
:100FF0002DE9FF4F92461D4685B04FF00041DDE9D7
:10100000124BDDE914727F1E01EA4B50414940F05A
:10101000FF4940EA0108002122F0200049280491FC
:1010200002D04E2828D04CE03BA0012607C88DE80E
:101030000700A9690698641C88477F1E014606D4EC
:101040001DF8060018B121F0200181420BD0E9699A
:1010500006988847032E34D0082E32D06FF0010056
:1010600009B0BDE8F08F761C032E01D0082EE0D128
:10107000601CCAF80000DCE7A9690698641C884770
:101080007F1E2AD420F02000412826D1A969069885
:10109000641C88477F1E20D420F020004E281CD1DD
:1010A000A9690698641C88477F1E48F4002849F403
:1010B0008009CAF8004001D4282806D0E9690698BA
:1010C00088475FEACB7012D022E0A9690698641CB9
:1010D00088477F1E01D4002803DAE969069888470B
:1010E000BCE72928F1D1641CCAF80040E9E71BF0ED
:1010F000240F07D028680499031D2B600068C0E9FD
:10110000001805E02868021D2A600068C0F80090F9
:101110002046A5E70000F07F494E46494E49545904
:101120000000000001491820ABBEFEE726000200C7
:101130003A2800D2303820F02002412A01D3A2F10F
:101140003700884201D34FF0FF30704770470000EE
:101150002DE9F04740F26007904689460646002494
:101160000FF2500AC2F2000700250AE03846314665
:101170004A46434600F0A8FA0025200618BFBDE8FD
:10118000F087304600F058F8E9B21AF801108842AA
:10119000F2D10135E9B20729EFD12A28E6D000BF04
:1011A000E1B27854304600F047F82A2804F10104EF
:1011B000F6D1DBE7244750524D432C0010B50446CE
:1011C00000F060F8A06842F200410001C0F2F401B2
:1011D000B1FBF0F12068416200218162C16A22798D
:1011E00001F060011143C1626179012904D039B96C
:1011F000C16A21F0080102E0C16A41F00801C16240
:10120000A17939B1022909D001290BD1C16A41F074
:10121000860106E0C16A21F0860102E0C16A41F060
:101220000601C162C16A40F2013241F01001C1629F
:10123000016B1143016310BD006800BF8169C906DD
:10124000FCD40068C0B270474EF68850CEF2000061
:10125000016841F4700101607047000080B540F200
:10126000C4004EF20001C2F20000C4F200010160AD
:101270004FF4165181606021818000218171FFF758
:101280009DFF80BD0068A0F18041A1F540414FEA7B
:101290003131072988BF7047DFE801F0041B3C5358
:1012A0007E95AFDA4EF20861C4F20F010A6942F08E
:1012B00001020A610A6842F001020A60D1F80024C2
:1012C000D207FBD0016B21F00101016344F2204100
:1012D00016E04EF20861C4F20F010A6942F0020200
:1012E0000A610A6842F002020A6000BFD1F80024D5
:1012F0009207FBD5016B21F00101016345F220410A
:10130000C4F20001086840F00302084640F8FC2BD4
:101310001122BFE04EF20861C4F20F010A6942F0E7
:1013200004020A610A6842F008020A60D1F8002447
:101330001207FBD5016B21F00101016347F2204147
:1013400016E04EF20861C4F20F010A6942F0080289
:101350000A610A6842F004020A6000BFD1F8002462
:101360005207FBD5016B21F00101016346F22041D8
:10137000C4F2000108686FF0C00C40F0C0020846DB
:1013800040F8FC2BD1F80C21C02342F08852C1F860
:101390000C2101F5847184E04EF20861C4F20F0162
:1013A0000A6942F010020A610A6842F004020A6007
:1013B000D1F800245207FBD5016B21F00101016334
:1013C00046F2204130E04EF20861C4F20F010A6992
:1013D00042F020020A610A6842F010020A6000BF6F
:1013E000D1F80024D206FBD5016B21F00101016385
:1013F00044F22041C4F2020118E04EF20861C4F246
:101400000F010A6942F040020A610A6842F00802CC
:101410000A6000BFD1F800241207FBD5016B21F050
:101420000101016347F22041C4F2000108686FF036
:10143000300C40F03002084640F8FC2BD1F80C216B
:10144000302342F48812C1F80C2101F5847128E0A0
:101450004EF20861C4F20F010A6942F080020A618B
:101460000A6842F010020A60D1F80024D206FBD5C7
:10147000016B21F00101016344F22041C4F2020139
:10148000086840F00302084640F8FC2BD1F80C2114
:1014900042F01102C1F80C2101F584716FF0030CC8
:1014A000032302681A430260086800EA0C0008601F
:1014B0007047000000000000B0B52DED0A8BB0EEC3
:1014C000618AB0EE419AB0EE60AA00F041F900F0F6
:1014D00083F9B0EE40BAB0EE4A0A00F039F900F0F4
:1014E0007BF9B0EE40AAB0EE490A00F031F900F005
:1014F00073F9B0EE409AB0EE480A00F029F900F016
:101500006BF940F2DC0539EE4B1A40F2D80030EEB0
:101510004A0AC2F20005B6EE00CAC2F2000085ED2A
:10152000000A21EE0C0A80ED001A10EE100A03F0FA
:1015300017FB41EC100B01F037FF9FED45ABB0EE10
:101540004A1AF0EE6A1A01F007F9B0EE408A1BEE73
:10155000100AF0EE608A03F003FB41EC100B01F07F
:101560002FF8B0EE40BA19EE100AF0EE60BA03F0B0
:10157000F7FA41EC100B01F023F851EC1B0B53EC84
:10158000102B02F0F7FF95ED000A044620EE0C0A3E
:1015900010EE100A0D4603F0E3FA41EC100B01F0D7
:1015A00003FFB0EE4A1AF0EE6A1A01F0D5F853ECD8
:1015B000102B2046294602F0DDFF02460B4651EC77
:1015C000180B02F0F1FC02F0BDFC09EE100A03F06A
:1015D000C7FA41EC100B01F04BFFB0EE408AB7EEBA
:1015E000000A30EE490A10EE100AF0EE608A03F0AD
:1015F000B7FA41EC100B01F03BFFB0EE401AB0EE31
:10160000480AF0EE601AF0EE680A00F0BDFE51ECF8
:10161000100B02460B4602F0C7FC02F093FC9FED54
:10162000100A01EE100A21EE000A10EE100A03F073
:1016300097FA9FED090B53EC102B02F09BFF02F081
:1016400081FC00EE100ABDEC0A8BB0BD00BF00BFEC
:1016500000000000000000409A9999999999B93FBB
:10166000706DC24AFFF7FAFD40F2C40840F2E40987
:1016700040F2E806C2F20008C2F20009C2F2000617
:10168000404649463246FFF763FD40F2D00740F23C
:10169000D40440F2E005C2F20007C2F20004C2F234
:1016A000000500BF97ED000AD4ED000A99ED001A7D
:1016B000D6ED001AFFF700FF40463946224685ED79
:1016C000000AFFF745FDEDE72DE9F04381B08846BC
:1016D00045F24C011546C0F200016A469946009059
:1016E000FEF79EFE20B345F24C070024C0F200072F
:1016F0006E460DE000F048FF51EC100B02F022FCAA
:1017000028600098394632460134FEF789FE78B1E8
:10171000012C05D0022CEDD0042CF2D10BE000BF3F
:1017200000785628EDD1404629464A46FFF710FD7D
:1017300001B0BDE8F08300F027FF51EC100B02F080
:1017400001FCC9F8000001B0BDE8F0830000000012
:10175000F0B581B09FED1E1A10EE100A80EE011A4E
:10176000BDEEC11A11EE104A03F0FAF90646204602
:101770000F4602F098FE9FED120B044653EC102B1F
:101780000D4602F0F7FE02460B463046394602F09F
:101790000BFC02F0D7FB03F0E3F99FED0B0B53ECCE
:1017A000102B02F0BDFC22462B4602F0FDFB02F09E
:1017B000C9FB00EE100A01B0F0BD00BF00BF00BFC2
:1017C00000000000000059C00000000000004E4072
:1017D0000000C8420000000080B510EE100A03F0BF
:1017E000BFF99FED050B53EC102B02F0C3FE02F086
:1017F000A9FB00EE100A80BD399D52A246DF913F41
:1018000023F07F4720F07F4C80EA030000F0004087
:10181000ACEB070303F57C5303F1FF032DE980498B
:1018200009B44FEA144324EA03484FEA154B25EA6A
:101830000B4E0FF2042606EB13273E7803FB0667D8
:10184000C7F5000707FB06F64FEAD64606F1020683
:101850004FEA543707FB066CCCF1005C4FEA1C479B
:101860002CEA074C0CFB06F507FB06F404EB1546C7
:101870004FEA961649085FEA320234BF00204FF063
:1018800000404FEAD13706FB07FC4FEA1C4C0CFB2B
:101890000BF7D21B03FB0CF761EB07010CFB0EF7F8
:1018A000B0EB074072EB17420CFB08F734BFA2EB1A
:1018B0000742B2EB074261EB17414FEA0C444FEA93
:1018C000910706FB07FC4FEA1C4C0CFB0BF7B0EB37
:1018D000C74072EB573203FB0CF734BFA2EBC74291
:1018E000B2EBC74261EB57310CFB0EF7B0EBC70010
:1018F00072EB57720CFB08F734BFA2EBC702B2EBD6
:10190000C70261EB57714FEA816141EA92114FEAD8
:10191000826242EA90124FEA806004EBCC04039F9B
:101920004FEAD13706FB07FC4FEA1C4C0CFB0BF7C8
:10193000D21B03FB0CF761EB07010CFB0EF7B0EBBE
:10194000074072EB17420CFB08F734BFA2EB0742CB
:10195000B2EB074261EB17414FEA8C5504EB9C2434
:101960004FEA910706FB07FC4FEA1C4C0CFB0BF7F8
:10197000B0EBC74072EB573203FB0CF734BFA2EB5E
:10198000C742B2EBC74261EB57310CFB0EF7B0EB2D
:10199000C70072EB57720CFB08F734BFA2EBC7020B
:1019A000B2EBC70261EB57714FEA816141EA9211D4
:1019B0004FEA826242EA90124FEA806015EB4C25B2
:1019C00044F100044FEAD13706FB07FC4FEA1C4CF8
:1019D0000CFB0BF7D21B03FB0CF761EB07010CFBB5
:1019E0000EF7B0EB074072EB17420CFB08F734BF61
:1019F000A2EB0742B2EB074261EB17414FEA81319C
:101A000041EA92414FEA823242EA90424FEA803004
:101A10004FEA0C7615EB1C1544F1000448EA034329
:101A20004EEA0B484FF0000EB2EB080C71EB0307C7
:101A300024BF624639464EEB0E0E4FF0000B0018E5
:101A4000524149414BEB0B0BB2EB080C71EB030716
:101A50007BF1000B24BF624639464EEB0E0E4FF071
:101A6000000B0018524149414BEB0B0BB2EB080C39
:101A700071EB03077BF1000B24BF624639464EEB46
:101A80000E0E51EA020718BF46F0010616EB0E765D
:101A900055F1000254F1000103D5BDE88901BDE80C
:101AA0000088BDE88901BDE80048B619524141EB04
:101AB0000101A3F10103704780807F7E7D7C7B7AEA
:101AC0007978777676757473727171706F6E6E6DEA
:101AD0006C6C6B6A6A696868676666656464636390
:101AE00062616160605F5F5E5E5D5D5C5C5B5B5A16
:101AF0005A59595858575756565555555454535383
:101B000052525251515050504F4F4F4E4E4D4D4DDD
:101B10004C4C4C4B4B4B4A4A4A4949494848484728
:101B20004747474646464545454444444443434366
:101B3000434242424241414110B546EA06464FEA1D
:101B4000164646EA42564FEAD22242EA41524FEA4C
:101B5000D121A3F57053A3F1010300F02FF820F079
:101B6000004000F0004700F1020CBCF5006F01EBF3
:101B70000050114640EA070000D210BDBAF1000F34
:101B80000AD01CB503B44FF004004FF004014FF02D
:101B900000000FBCBDE810404FF00001BBF1010F89
:101BA000B9BF04484FF0FF310348002140EA070065
:101BB00010BD00BFFFFFEF7F0000F07F9C46002BB1
:101BC00030D477002BD04FEA37071CB503B44FF061
:101BD00010004FF01001BAF1000F06D0BCF1000F59
:101BE000DCBF40F0080040F008014FF000000FBCDF
:101BF000BDE810400BF1010BBBF1010F08BF5FEA1C
:101C0000170722BF12F1010211F101014FF000414B
:101C100043F1000300F0004043EA00007047F9D3AD
:101C20005708D0E746EA06464FEA164613F1400F3A
:101C30001FDD13F1200FDFBF16430A4600212033BA
:101C40005B42BED0C3F1200746EA06464FEA16467D
:101C500002FA07F746EA070622FA03F2C3F1200761
:101C600001FA07F742EA070221FA03F14FF00003F5
:101C7000A7E746EA020646EA06464FEA164646EA5D
:101C80000106BCBF46EA0646360C4FF000034FF093
:101C900000024FF0000194E72DE9804C70B49A46A1
:101CA000934691E8380007C831EA400C48BF34EA4F
:101CB000430C03D5FFF7A4FDFFF780FFF0BCBDE8A0
:101CC000008C2DE9804C70B49A46934691E8380018
:101CD00007C831EA400C48BF34EA430C03D5FFF78C
:101CE0008FFDFFF729FFF0BCBDE8008C2DE9804C8B
:101CF00070B49A46934691E8380007C810F0804FB8
:101D000008BF13F0804F03D100F01AF8FFF756FF19
:101D1000F0BCBDE8008C2DE9804C70B49A46934627
:101D200091E8380007C810F0804F08BF13F0804FCB
:101D300003D100F005F8FFF7FFFEF0BCBDE8008C12
:101D400020F07F4723F07F4C80EA030000F0004042
:101D500007EB0C03A3F57C53A3F1FE0392F0000FF5
:101D600000F0B38095F0000F00F077802DE9014975
:101D70004FEA114021EA00484FEA144624EA064798
:101D800000FB06FC08FB06F607FB08F818EB064804
:101D90004CEB164C00FB07F718EB07484CEB1740D1
:101DA0004FEA124B22EA0B4E4FEA154625EA064748
:101DB0000BFB06FC0EFB06F607FB0EFE1EEB064EAB
:101DC0004CEB164C0BFB07F71EEB074E4CEB174B7F
:101DD00018EB0B0840F1000018EB0E0B58EB000855
:101DE00040F100008F1A4FF000014FF000063CBF99
:101DF000C943661B14BFB5EB040C00213CBFC943AB
:101E0000F61B4FEA174427EA04454FEA1C472CEA21
:101E1000074C04FB076205FB07F70CFB05F616EB06
:101E2000074642EB174204FB0CFC16EB0C4642EB58
:101E30001C421BEB060658EB020241414EEA8E0E95
:101E400046EA9E0601D5BDE80189B619524141EB2B
:101E50000101A3F10103BDE801894FEA144524EA19
:101E600005464FEA114721EA074C05FB07F406FB3C
:101E700007F70CFB06F111EB074144EB174405FB98
:101E80000CFC11EB0C4144EB1C444FEA124722EAD4
:101E9000074C05FB07F206FB07F70CFB06F616EBF3
:101EA000074642EB174205FB0CFC16EB0C4642EBD7
:101EB0001C456A1854F1000148BF7047B6195241D9
:101EC00041EB0101A3F10103704795F0000F37D0FA
:101ED0004FEA114221EA02464FEA144724EA074C2E
:101EE00002FB07F106FB07F70CFB06F414EB0744B3
:101EF00041EB174102FB0CFC14EB0C4441EB1C4181
:101F00004FEA154725EA074C02FB07F506FB07F7E2
:101F10000CFB06F616EB074645EB174502FB0CFCDF
:101F200016EB0C4645EB1C42121951F1000148BF5B
:101F30007047B619524141EB0101A3F1010370470B
:101F40004FEA144524EA05464FEA114721EA074CB7
:101F500005FB07F106FB07F70CFB06F212EB074245
:101F600041EB174105FB0CFC12EB0C4251EB1C4101
:101F70004FF0000648BF7047921841EB0101A3F1F2
:101F80000103704703B401984100009850EAC12052
:101F900018BF04204A0D18BF40F0010040F2FF7244
:101FA000B2EB515F08BF40F00200012808BF0520D6
:101FB00002B070470000000030B52DED048B81B0F9
:101FC000B0EE408AF0EE608A6A4651EC180B01F0E0
:101FD00003FF00989FED329B7E300090002821DCAB
:101FE00053EC192B51EC180B02F0F2F91AD0002126
:101FF00040F608004FF00000044651EC180B01F0C9
:10200000A1FF08EE100A40F6080004EA00014FF0B4
:102010000000B5EEC08AF1EE10FA04BF0220FEF710
:1020200009FA2DE00098FF2830DB002108464FF028
:10203000000000F4400553EC192B51EC180B02F092
:1020400097FB8CBF002401240220FEF7F3F99FEDDB
:10205000168A4DB1002C0CBF4FF400004FF48000E5
:10206000A84218BF9FED118A042108464FF00000D6
:10207000002C01BFB1EE480A01B0BDEC048B30BDAD
:10208000B0EE480A01B0BDEC048B30BD51EC180B2A
:1020900001F058FF01B000EE100ABDEC048B30BD1A
:1020A00000000000000000000000807FFFFF7F7F35
:1020B00070B59B482DED020B2DED068B079D25F08D
:1020C0000044A04218DC9748844202DC0AD10698FA
:1020D00040B19DED060BBDEC068B02B0BDE8704033
:1020E00001F006BE002DCCBF9FED8F0B9FED900B36
:1020F000BDEC068B02B070BD8F48A04215DD8F4845
:10210000A042D8BF4FF0FF3458DD9DED060B51ECD7
:10211000100BFFF737FF042808BF01F01DFE9DEDEF
:10212000060BBDEC068B02B070BD9DED060B51ECAD
:10213000100B01F043FECDE9060181489FED828B33
:10214000A0423CDD8248A0421FDD00249FED82AB0F
:102150009DED060B53EC1A2B51EC100B01F024FFF4
:102160009DED060B41EC190B53EC1A2B51EC100BA7
:1021700002F000FA53EC182B02F008FC53EC192B78
:1021800001F0CEFFCDE9060149E09DED060B0124EB
:1021900053EC182B51EC100B01F006FF9DED060BD4
:1021A00041EC190B53EC182B51EC100B02F0EEFB29
:1021B00053EC192B01F0B4FFCDE906012FE068487C
:1021C000A0421FDD02249FED689B9DED060B53ECA2
:1021D000192B51EC100B02F0CDF953EC182B01F038
:1021E000E3FE9DED060B41EC180B53EC192B51EC63
:1021F000100B02F0CBFB53EC182B01F091FFCDE953
:1022000006010CE09DED060B032453EC102B9FED13
:10221000580B51EC100B01F083FFCDE906019DED49
:10222000060B53EC102B51EC100B02F0A3F941EC10
:10223000180B53EC182B02F09DF941EC190B4E488A
:102240000621B0EE490AF0EE690A784401F024FC58
:1022500053EC182B51EC100B02F08CF941EC180BDD
:102260004648B0EE490AF0EE690A0521784401F0CB
:1022700013FC53EC192B51EC100B02F07BF941ECE1
:10228000100B51EC180B53EC102B002C0EDA01F054
:102290008BFE9DED061B53EC112B02F06BF99DEDAF
:1022A000061B53EC112B02F099FA35E001F07CFE8D
:1022B0009DED061B53EC112B02F05CF941EC100B69
:1022C0002F48784400EBC40090ED001B51EC100B3C
:1022D00053EC112B02F05AFB9DED061B53EC112B16
:1022E00002F054FB41EC100B2648784400EBC4008C
:1022F00090ED001B51EC100B53EC112B02F06EFA19
:1023000041EC100B002DA2BFBDEC068B02B070BDDE
:1023100051EC100B01F00AFE41EC100B01E700003C
:10232000000010440000F07F182D4454FB21F93FB9
:10233000182D4454FB21F9BF0000DC3F0000203E73
:102340000000F33F00000000000000000000F03F2C
:102350000000E63F00000000000000000000004018
:102360000080034000000000000000000000F83F73
:10237000000000000000F0BF0A2C0000C02B00008D
:102380004A2B0000022B000070B56F4E2DED040BA0
:102390002DED048B82B0DDF824C0DDE907235C421B
:1023A0002CF000411C4341EAD474069D22F0004009
:1023B000B44205D86C422C4340EAD474B4420BD9E1
:1023C0009DED081B9DED060B02B0BDEC048B04B027
:1023D000BDE8704001F096BCACF14054A4F17F64BC
:1023E0001C430BD0022404EAAC7444EAD2740543C3
:1023F0009FED578B9FED582B07D015E09DED060BF9
:1024000051EC100B01F0D2FC42E0002C11BF012C6A
:102410009DED060B02B0BDEC048B04BF04B070BD93
:10242000022C38D0032C3BD00B439FED4D1B9FED6E
:102430004E0B0AD0B14218D1B04209D121F08041EF
:1024400020F08040099107900FE0002A15DA10E093
:10245000474B7B44002C08BF93ED000B0DD0012CA3
:1024600010D0022C17D0032C1AD0B0421DD1002A54
:1024700003DAB0EE410AF0EE610A02B0BDEC048B63
:1024800004B070BD93ED000B51EC100B01F04EFD4C
:1024900041EC100BF1E7B0EE480AF0EE680AECE709
:1024A000B0EE420AF0EE620AE7E7401A00159FED2F
:1024B000329B3C28C8BF8DED000B17DCBCF1000F30
:1024C000BCBF10F13C0F8DED009B0FDB9DED080BA9
:1024D00053EC102B9DED060B51EC100B01F020FE80
:1024E00001F06CFC01F062FCCDE90001B4B1012CFB
:1024F00010D0022C9FED220B53EC102B9DED000B06
:1025000051EC100B19D002F041FA53EC182B02F0E9
:102510003DFABDE7019880F0004001909DED000B71
:1025200053EC192B51EC100B01F052FF04BF0220A9
:10253000FDF780FF9DED000B9FE702F027FA53ECBB
:10254000182B02F04BF9A3E70000F07F0000000019
:10255000182D4454FB210940182D4454FB2109C077
:10256000182D4454FB21F9BF182D4454FB21F93F89
:10257000622A0000000000000000000000000000CF
:10258000075C143326A6A13C30B583B00446FDF7A2
:102590004CFF9FED090B05468DED000B012300223A
:1025A00021466846FDF76EFF2846FDF743FF9DED87
:1025B000000B03B030BD0000000000000000000070
:1025C00010B52F499FED2C1B2DED020B84B0059803
:1025D00020F000408842D8BF9DED040B2DDD294935
:1025E000884209D1049840B94FF00100FDF722FF5D
:1025F00001F092FB06B010BD05DB9DED040B01F070
:1026000077FB06B010BD68469DED040B00F070FF2F
:1026100010F0030004BF9DED021B9DED000B0CD0DC
:1026200001280ED09DED021B9DED000B022817D056
:10263000012001F0ADFA06B010BD01F075F906B049
:1026400010BD9DED021B9DED000B012001F0A0FAD5
:1026500051EC100B01F06AFC06B041EC100B10BD00
:1026600001F062F951EC100B01F060FC06B041EC96
:10267000100B10BD00000000000000000000000072
:10268000FB21E93F0000F07F30B540F2FF742DEDF3
:10269000048BF0EE608A18EE901A85B0B0EE408A96
:1026A0009FED2B9B05468DED008B34EA115147D0F1
:1026B00053EC192B51EC180B01F08AFE40D02A463E
:1026C00051EC180B02F004FB41EC180B18EE900AC9
:1026D0008DED008B34EA10501CD053EC192B51ECCB
:1026E000180B01F075FE2BD10220FDF7A3FE01F0BF
:1026F00033FB10EE901A18EE900A8DED020B8DED63
:10270000008B61F31E0003909DED020B05B0BDEC44
:10271000048B30BD0220FDF78DFE01F00DFB10EEA5
:10272000901A18EE900A8DED020B8DED008B61F37F
:102730001E0003909DED020B05B0BDEC048B30BD77
:1027400005B0B0EE480AF0EE680ABDEC048B30BD6F
:1027500000000000000000002DE9F04D2DED040BFD
:102760002DED0E8B96B0DDE92550279CDDF890A06D
:1027700025F0004624F00048BAF1000F14BF0121F3
:10278000002101EB4502FC4953184A1093422AD319
:10279000002814BF0123002303EB44030B44F74933
:1027A0008B4220D358EA00019FEDF59B76D0DFF8ED
:1027B000D8B35D4503D1BAF1000F05D188E0BAF175
:1027C000000F08BF002100D0012101EB450111F5E8
:1027D000001F08D8002814BF0121002101EB44018B
:1027E00011F5001F0BD99DED261B9DED240B16B096
:1027F000BDEC0E8B04B0BDE8F04D01F083BA0027AC
:10280000002DBCBFE149884521DAE1498845A8BFD0
:1028100002271CDAC3451ADCDE4901EB28511429D2
:1028200008DDC1F1340220FA02F101FA02F282421B
:102830000DD108E058B9C1F1140228FA02F101FAE9
:1028400002F2424503D101F00101C1F1020756EA4B
:102850000A0124D1002C22DA002D18BF022F01D04A
:10286000012F0AD00220FDF7E5FD16B0BDEC0E8B5E
:1028700004B0BDE8F04D01F023BA0220FDF7DAFD07
:1028800001F01EFA51EC100B01F050FB41EC100B63
:1028900016B0BDEC0E8B04B0BDE8F08D18E09FEDD6
:1028A000BEAB9FEDBF8B002871D1B848804522D1C7
:1028B00005F1804010F5801008BFBAF1000F07D075
:1028C000B3450ADC002CA8BF9DED260BE0DA0DE035
:1028D000B0EE490AF0EE690ADAE7002C06DA9DED5F
:1028E000260B51EC100B01F021FB6FE0AE48784451
:1028F00090ED000BCCE7D8454DD1002C48DA2EB135
:1029000086423AD1BAF1000F42D126E0BAF1000F67
:1029100013D00220FDF78EFD01F00EFA8DED020BB3
:102920009DED240B8DED000B10EE900A039961F3E1
:102930001E0003909DED020BAAE78DED02AB9DED0D
:10294000240B1AEE901A10EE900A8DED000B61F335
:102950001E0003909DED020B9AE78DED028B9DED1D
:10296000240B18EE901A10EE900A8DED000B61F317
:102970001E0003909DED020B8AE709DA9DED240B02
:1029800051EC190B53EC102B01F0CAFB1EE020E0B8
:102990009DED240B7CE786421BDAB4F1804F0DD00D
:1029A000A4F10050B0F1FF5013D1002D11DB9DEDCB
:1029B000240B51EC100B01F055FA07E09DED240BB0
:1029C00053EC102B51EC100B00F0C2BC41EC100B7F
:1029D0005EE79DED240B51EC100B01F0EFF9BAF11D
:1029E000000FCDE90E0142D19FED710B46B3A6F168
:1029F000E040B0F17F600CD05E4538D1002D00DAA8
:102A0000A7B3022F0CBF01204FF0FF3001F04BFDA8
:102A1000DCE7002D01DD002C0DDA002D01DD002C9E
:102A20001FDB002D16DA002C14DB012F08BF9FEDF1
:102A3000620B3FF42DAFB0EE4A0AF0EE6A0A27E7C8
:102A4000022F18BF002D0CD0012F0AD1002DFFF648
:102A50001FAF06E0002DB8BF002C08DA012F3FF4AD
:102A600017AFB0EE480AF0EE680A11E71BE001204C
:102A700000EBE57050EA070115D0791EB0EE498AE7
:102A8000F0EE698A084308BF9FED4D8B4E48002544
:102A9000804570DD4D494E48884514DDB0420DDB60
:102AA000002C19DB2FE00120FDF7C4FC16B0BDECB3
:102AB0000E8B04B0BDE8F04D01F02EB9B34502DC39
:102AC000002C09DC1FE0864202DA002C1BDA03E04E
:102AD0005E452BDD002C16DD0220FDF7ABFC01F07E
:102AE0002BF98DED020B53EC1A2B51EC180B01F066
:102AF00041FDCDE900010399019861F31E000390A7
:102B00009DED020BC4E60220FDF794FC01F024F9D0
:102B100010EE901A18EE900A8DED020B8DED008BE1
:102B200061F31E0003909DED020BB1E69DED0E0BCF
:102B300053EC192B51EC100B01F028FF9FED260BE5
:102B4000CDE9080153EC102B9DED080B51EC100B57
:102B500001F010FD9FED221B53EC112B01F03EFE06
:102B60009DED081B53EC112B01F004FD9FED1E1B86
:102B700053EC112B3CE08CE0FFFF1F00FFFF0F0028
:102B8000000000000000F03F0000F03F0000F07F78
:102B90000000404301FCFFFF000000000000F07F48
:102BA0000000000000000000C6250000000000003A
:102BB0000000000000000080000000000000F0FFA6
:102BC000000000000000F0BF0000E0410000F04302
:102BD000FFFFEF3F00000000000000000000D03FBA
:102BE000555555555555D53F000000000000E03FB4
:102BF00001F0F4FD9DED080B41EC1A0B53EC102B8A
:102C000051EC100B01F0B6FC53EC1A2B01F0B2FCA6
:102C100041EC1A0B9FEDFE0B53EC102B9DED080BB6
:102C200051EC100B01F0A6FC41EC1B0B9FEDFA0BD5
:102C300051EC1A0B53EC102B01F09CFC41EC1A0BDD
:102C40009FEDF70B53EC102B9DED080B51EC100B87
:102C500001F090FC53EC1A2B01F098FE41EC1A0B9A
:102C600051EC1B0B53EC1A2B01F09EF90690CDE9A9
:102C700006519DED060B53EC1B2B51EC100B01F094
:102C800085FE53EC1A2B01F0A9FD41EC100B00F06E
:102C9000A1B90020B6F5801F0EDA9FEDE30B53ECCF
:102CA000102B9DED0E0B51EC100B01F063FCCDE9E8
:102CB0000E016FF034000E4600EB2650A0F2FF37F5
:102CC000C6F31300DA4940F07F6646F0405688426A
:102CD000D8BF002408DDD7498142C8BF012403DCE6
:102CE0000024A6F580167F1CD348784400EBC4006E
:102CF0000F9690ED00CB9DED0E0B53EC1C2B51EC81
:102D0000100B01F043FE9DED0E0B41EC1B0B53EC41
:102D10001C2B51EC100B01F047F941EC100B51EC5E
:102D2000190B53EC102B01F0FBF941EC1D0B51EC8E
:102D30001B0B53EC1D2B01F01DFC41EC1A0BBF4883
:102D40008DED10AB7844109590ED000B4FF00050D6
:102D500040EA660000EB84408DED080B00F5002092
:102D600009909DED080B53EC1C2B51EC100B01F05E
:102D70000DFE9DED0E1B53EC112B01F02FFD41ECD0
:102D8000100B53EC102B9DED100B51EC100B01F0C0
:102D9000F1FB9DED080B41EC1C0B53EC102B9DED52
:102DA000100B51EC100B01F0E5FB53EC1B2B01F069
:102DB00015FD53EC1C2B01F0E9FD53EC1D2B01F02C
:102DC000D9FB41EC1C0B53EC1A2B51EC1A0B01F004
:102DD000D1FB41EC1B0B9A480621B0EE4B0AF0EEFA
:102DE0006B0A784400F058FEB0EE401AF0EE601A1C
:102DF000B0EE41DAF0EE61DA53EC1B2B51EC1B0B19
:102E000001F0B8FB53EC1D2B01F0B4FB9DED100B52
:102E100041EC1B0B53EC1A2B51EC100B01F0C4F8D6
:102E200053EC1C2B01F0A6FB53EC1B2B01F0BCF860
:102E30009DED100B41EC1B0B53EC102B51EC100BC8
:102E400001F098FB41EC1D0B9FED7FEB53EC1E2B2B
:102E500001F0AAF853EC1B2B01F0A6F80890CDE97D
:102E600008519DED080B53EC1E2B51EC100B01F09B
:102E70008DFD53EC1D2B01F089FD53EC1B2B01F054
:102E8000ADFC9DED080B41EC1D0B53EC102B9DEDA3
:102E9000100B51EC100B01F06DFB41EC1B0B53ECD4
:102EA0001A2B51EC1D0B01F065FB9DED080B41EC5D
:102EB0001A0B53EC102B51EC1C0B01F05BFB53EC89
:102EC0001A2B01F071F841EC1A0B51EC1B0B53EC6F
:102ED0001A2B01F069F80C90CDE90C519DED0C0B0B
:102EE00053EC1B2B51EC100B01F050FD53EC1A2B43
:102EF00001F074FC41EC1B0B9FED550B53EC102BB8
:102F00009DED0C0B51EC100B01F034FB41EC1A0B56
:102F10009FED510B51EC1B0B53EC102B01F02AFBD6
:102F200041EC1B0B9FED4E0B53EC102B9DED0C0B4E
:102F300051EC100B01F01EFB53EC1B2B01F034F88D
:102F400041EC100B4848784400EBC40090ED001BA6
:102F500051EC100B53EC112B01F026F841EC1B0B3C
:102F6000384601F0A0FACDE9080153EC1B2B51ECD7
:102F70001A0B01F019F841EC100B3C48784400EBB7
:102F8000C40090ED00CB51EC100B53EC1C2B01F066
:102F90000BF89DED081B53EC112B01F005F8069082
:102FA000CDE906519DED080B53EC102B9DED060B62
:102FB00051EC100B01F0EAFC53EC1C2B01F0E6FC89
:102FC00053EC1A2B01F0E2FC53EC1B2B01F006FC36
:102FD00041EC100B9DED261B53EC102B8DED001BCF
:102FE00000959DED260B51EC100B01F0C3FA9DED01
:102FF000000B41EC1A0B53EC102B9DED260B51EC02
:10300000100B01F0C3FC9DED061B53EC112B2FE0C0
:10301000000000604715F73FFE822B654715F73F1C
:1030200044DF5DF80BAE543E00000000000040435A
:103030008E9803007AB60B007A2000007021000001
:10304000B21F000000000000000000000000084067
:10305000000000E009C7EE3FFD033ADC09C7EE3F80
:10306000F5015B14E02F3EBE3E1E0000F81D00007F
:1030700001F080FA53EC1A2B00F096FF9DED060B41
:1030800041EC1A0B53EC102B9DED000B51EC100B87
:1030900001F070FACDE90C019DED0C0B51EC1A0B0F
:1030A00053EC102B00F080FFCDE902010C46AA4939
:1030B0008C422FDB611A084318D19DED0C0B53ECA9
:1030C000102B9DED020B51EC100B01F05FFC41EC5D
:1030D0001B0B9FEDA30B51EC1A0B53EC102B00F0C4
:1030E00063FF53EC1B2B01F043FB2DD20220FDF7B5
:1030F000A1F900F021FE10EE901A18EE900A8DED65
:10310000020B8DED008B61F31E0003909DED020B11
:10311000FFF7BEBB944A24F00041914214D3934977
:10312000214408437FF4EFAC9DED0C0B53EC102BC6
:103130009DED020B51EC100B01F028FC53EC1A2B07
:1031400001F016FB7FF6DFAC24F000408849894A85
:10315000002601EB205182422BDA481C4FF48011EB
:1031600021FA00F02044844AC0F30A517A44A1F2C3
:10317000FF3192ED000B814A8DED080BCA4020EA29
:103180000202C0F3130040F48010C1F1140120FAD0
:1031900001F60992002CB8BF76429DED080B53EC66
:1031A000102B9DED0C0B51EC100B01F0EFFBCDE95A
:1031B0000C019DED0C0B51EC1A0B53EC102B00F095
:1031C000F3FE9FED6F0B0890CDE9085153EC102BE7
:1031D0009DED080B51EC100B01F0CCF941EC1B0BF1
:1031E0009FED690B53EC102B9DED080B51EC100B70
:1031F00001F0C0F99DED0C0B41EC1C0B53EC102BB6
:103200009DED080B51EC100B01F0C0FB53EC1A2B99
:1032100001F0E4FA9FED5E1B53EC112B01F0AAF9CB
:1032200053EC1C2B00F0C0FE41EC1A0B51EC1B0BB5
:1032300053EC1A2B00F0B8FECDE902019DED020B14
:1032400053EC1B2B51EC100B01F0A0FB53EC1A2B91
:1032500001F0C4FA9DED020B41EC1A0B53EC102B5C
:1032600051EC100B01F086F9CDE908014A489DEDBB
:10327000080B0521784400F00FFC9DED081B51EC74
:10328000100B53EC112B01F075F99DED021B53EC63
:10329000112B01F0A3FACDE906019DED020B53ECD1
:1032A0001A2B51EC100B01F065F953EC1A2B00F0BE
:1032B0007BFE9FED3B0B41EC1A0B53EC102B9DED6D
:1032C000060B51EC100B01F061FB9DED060B41EC80
:1032D0001B0B53EC102B9DED020B51EC100B01F06E
:1032E00049F953EC1B2B00F01BFF53EC1A2B01F098
:1032F0004DFB9DED021B53EC112B01F047FB53ECF2
:10330000192B01F06BFACDE9020101EB0650011512
:103310000029C8BF039015DC9DED020B324651EC2D
:10332000100B01F0D5FCFEF72DFE042808BF00F0BD
:1033300013FD32469DED020B51EC100B01F0C8FC61
:10334000CDE902019DED020B51EC180B53EC102B53
:1033500001F010F9FFF73ABB0000904000000000B8
:10336000FE822B654715973C00CC904000346F3FA0
:1033700001FCFFFF0000E03F481D0000FFFF0F00C1
:1033800000000000432EE63F396CA80C615C20BEB3
:10339000EF39FAFE422EE63F501B0000000000000D
:1033A000000000000000004010B52F499FED2C1BCD
:1033B0002DED020B84B0059820F000408842DCBF60
:1033C00000209DED040B32DD2849884209D1049884
:1033D00040B94FF00100FDF72DF800F09DFC06B05C
:1033E00010BD05DB9DED040B00F082FC06B010BDA6
:1033F00068469DED040B00F07BF810F0030011D03F
:10340000012818D09DED021B9DED000B02281AD05B
:1034100000F08AFA51EC100B00F088FD06B041EC88
:10342000100B10BD9DED021B9DED000B012000F067
:10343000AFFB06B010BD9DED021B9DED000B00F033
:1034400073FA06B010BD012000F0A2FB51EC100B86
:1034500000F06CFD06B041EC100B10BD0000000048
:103460000000000000000000FB21E93F0000F07FA9
:1034700000B52DED048BB0EE409AF0EE609A83B06B
:1034800051EC190B01F0B6F941EC180B18EE100ACB
:1034900018EE901A8DED008B002818BF012008430C
:1034A00020F00040C0F17F6000F1E040C00F14D078
:1034B00019EE101A19EE900A8DED009B002918BF25
:1034C0000121084320F00040C0F17F6000F1E0409E
:1034D000C00F04BF0120FCF7ADFFB0EE480A03B0F7
:1034E000F0EE680ABDEC048B00BD00000000000097
:1034F0002DE9F14F04462DED020B2DED088B8AB01E
:103500009FEDE70B80ED020B139EE74826F0004588
:1035100085420ADC9DED120B002084ED000B0AB001
:10352000BDEC088B03B0BDE8F08FE0489FEDE0AB49
:103530009FEDE1BBA84247DDE14F9FEDE39B9FED8F
:10354000E48B9DED120B53EC1A2B51EC100B002E5B
:103550001CDD01F01BFA41EC100BBD4208D053EC0E
:103560001B2B51EC100B01F011FAC4E900010BE028
:1035700053EC192B51EC100B01F008FA53EC182BFB
:1035800001F004FAC4E900010120C8E700F00CFDD5
:1035900041EC100BBD4208D053EC1B2B51EC100B2F
:1035A00000F002FDC4E900010BE053EC192B51ECD3
:1035B000100B00F0F9FC53EC182B00F0F5FCC4E9FB
:1035C00000014FF0FF30AAE7C348A84279DB9DED28
:1035D000120B51EC100B00F0F1FB41EC180B9FEDBE
:1035E000C00B53EC102B00F0C5FF9FEDBF1B53EC3D
:1035F000112B00F0D9FC00F027FF074600F053FF25
:1036000041EC190B53EC1A2B00F0B4FF53EC182BC0
:1036100001F0E4F841EC180B53EC1B2B51EC190BA7
:1036200000F0A8FFDFF8C8A241EC100B4FEA1558D4
:103630000125FA4453EC102B51EC180B01F0A6F9BC
:10364000032DC4E900013DD0C1F30A5005EB45113B
:10365000A8EB00001139814234DA0AEB051BB0EE09
:1036600048AA9BED000BF0EE68AA53EC102B51EC2E
:10367000190B00F07FFF41EC1B0B51EC1A0B53ECC4
:103680001B2B01F083F941EC180B51EC1A0B53EC96
:10369000182B01F07BF953EC1B2B01F077F99BED14
:1036A000020B41EC1A0B53EC102B51EC190B00F0F0
:1036B00061FF53EC1A2B01F069F941EC100B6D1C02
:1036C000B8E70EE0002EA8BF3846BFF628AF94ED4D
:1036D000000B51EC100B00F029FCC4E9000178420A
:1036E0001DE7C6F3130040F4801EC6F30A50A0F293
:1036F000F530471100F01F05C5F12000DDF848B096
:1037000008900020069007900520EC467949002D8E
:1037100007EB0002794408BF51F8221009D051F894
:10372000223001EB8201AB404A68089922FA01F18C
:103730001943A1FB0E26A1FB0B131A449A4234BF76
:103740000123002303EB06080CEB8003D3E901A659
:103750000E448E4234BF0121002192448A4411B1AB
:10376000924502D903E0924501D2012100E00021F7
:10377000C3E901A641444CF82010011EA0F101004C
:10378000C4DC029800F10050850F0298DDE9036760
:103790008000DDF8148000F086FE41EC1A0B304604
:1037A00000F098FE9FED541B53EC112B00F0E2FE4D
:1037B00041EC1B0B384600F08DFE9FED511B53EC86
:1037C000112B00F0D7FE41EC180B404600F082FEB2
:1037D0009FED4D1B53EC112B00F0CCFE41EC190B6F
:1037E00051EC180B53EC192B00F0DEFB53EC1B2BA8
:1037F00000F0DAFB53EC1A2B00F0D6FBCDE9080100
:10380000002008909DED080B53EC1A2B51EC100B87
:1038100001F0BCF853EC1B2B01F0B8F853EC182B5B
:1038200001F0B4F853EC192B00F0D8FF9FED381BD2
:1038300053EC112B00F09EFE9FED370B41EC180B63
:1038400053EC102B9DED080B51EC100B00F092FE89
:1038500053EC182B00F0A8FB9FED310B41EC180B3B
:1038600053EC102B9DED080B51EC100B00F082FE79
:1038700053EC182B00F098FB41EC100B139810F050
:10388000004F06D06D4251EC100B00F04FFB41ECA5
:10389000100B284684ED000B41E6000000000000FC
:1038A0000000000000000000FB21E93F7CD902403D
:1038B00000004054FB21F93F3163621A61B4D03DEE
:1038C000FB21F93F000000000000601A61B4D03D08
:1038D0007370032E8A19A33BFB21394100000000BD
:1038E00083C8C96D305FE43F000000000000E03F86
:1038F0008A180000D8170000000000000000103EE9
:10390000000000000000103C000000000000103A21
:10391000182D4454FB21F93D3326A611460B113CCA
:1039200000000054FB21F93D10B52DED040B2DEDE9
:10393000088B82B0B0EE419AF0EE619A0B9820F0BD
:1039400000449FED4BABB4F1795F11DA9DED0A0BAA
:1039500051EC100B00F078FD002801BFB0EE4A0AD0
:10396000F0EE6A0A02B0BDEC088B04BF04B010BDD3
:103970009DED0A0B53EC102B51EC100B00F0FAFDEF
:1039800041EC180B3C480621B0EE480AF0EE680AFC
:10399000784400F081F853EC182B51EC100B00F038
:1039A000E9FD9DED0A0B41EC1B0B53EC192B51EC7F
:1039B000100B00F0DFFD41EC190B53EC1B2B51EC0D
:1039C000180B00F0D7FD53EC192B00F0DFFF9FED33
:1039D0002C0B41EC190B53EC102B51EC180B00F095
:1039E000C9FD41EC100B2848844210DA53EC192B26
:1039F00051EC100B00F0CAFF53EC1A2B00F0EEFE56
:103A000041EC100B02B0BDEC088B04B010BD1F4898
:103A1000A042BCBF9FED1E1B8DED001B06DBA4F575
:103A200000100190002000909DED001B51EC100B48
:103A300053EC112B00F0AAFF9DED000B41EC180B8D
:103A400053EC102B51EC1A0B00F0A0FF41EC1A0BB9
:103A500053EC192B51EC180B00F098FF53EC1A2B78
:103A600000F0BCFE41EC100BCCE7000000000000B1
:103A7000000000000000F03FF4140000000000000F
:103A8000000000000000E03F3333D33F0000E93F77
:103A9000000000000000D23F70B504462DED028BFF
:103AA0004D1E00EBC500B0EE408AF0EE608A90ED4E
:103AB000000B35F0060017D053EC182B51EC100B0F
:103AC00000F058FD41EC100B6D1E04EBC50090EDAD
:103AD000001B51EC100B53EC112B00F065FA41EC7C
:103AE000100B35F00600E7D1022D36D0042D1CD086
:103AF000062D1CBFBDEC028B70BD53EC182B51EC96
:103B0000100B00F037FD94ED0A1B53EC112B00F065
:103B10004BFA53EC182B00F02DFD94ED081B53ECE1
:103B2000112B00F041FA41EC100B53EC182B51EC27
:103B3000100B00F01FFD94ED061B53EC112B00F051
:103B400033FA53EC182B00F015FD94ED040B53ECF5
:103B5000102B00F029FA41EC100B53EC182B51EC10
:103B6000100B00F007FD94ED021B53EC112B00F03D
:103B70001BFA53EC182B00F0FDFC94ED001B53ECEA
:103B8000112B00F011FABDEC028B41EC100B70BD53
:103B900031B504462DED040B2DED0A8BB0EE41BA84
:103BA000F0EE61BA0B989DED0A0B20F00040B0F1E9
:103BB000795F0DDA51EC100BFEF7E4F9042808BF29
:103BC00000F0CAF89DED0A0BBDEC0A8B05B030BDC4
:103BD00053EC102B51EC100B00F0CCFC41EC180B0B
:103BE0009DED0A0B53EC182B51EC100B00F0C2FCAE
:103BF00041EC190B2C48B0EE480AF0EE680A05219A
:103C00007844FFF749FF9FED2ACBB0EE40AAF0EED3
:103C100060AA9CB353EC1C2B51EC190B00F0AAFCCE
:103C200041EC1C0B53EC1A2B51EC190B00F0A2FCCD
:103C30009FED210B41EC190B53EC102B51EC1B0B9E
:103C400000F098FC53EC192B00F0A0FE53EC182B5D
:103C500000F090FC53EC1B2B00F098FE53EC1C2B57
:103C600000F094FE9DED0A1B53EC112B00F0B6FD05
:103C7000BDEC0A8B05B041EC100B30BDFFE753ECF7
:103C80001A2B51EC180B00F075FC53EC1C2B00F0B8
:103C90008BF953EC192B00F06DFC9DED0A1B53ECD6
:103CA000112B00F081F9E3E78C1300000000000005
:103CB000495555555555C5BF000000000000E03F6F
:103CC0009FED070B10B553EC102B9FED070B51EC3C
:103CD000100B00F025FA41EC100B10BD00000000A5
:103CE0000000000000000000000000000000F03FA5
:103CF00010B553EC102B51EC100B00F055F941ECC2
:103D0000100B10BD10B553EC112B51EC100B00F043
:103D10004BF941EC100B10BD9FED050B10B553ECAA
:103D2000102B51EC100B00F0FBF941EC100B10BD07
:103D300000000000000000009FED050B10B553ECE3
:103D4000102B51EC100B00F015FC41EC100B10BDCA
:103D500000000000000000709FED050B10B553EC53
:103D6000102B51EC100B00F005FC41EC100B10BDBA
:103D7000000000000000001010B5044691ED000B9B
:103D8000FEF71AF984ED000A10BD10B5044690ED57
:103D9000000B0846FEF778FC84ED000B10BD3038B0
:103DA0000A2801D2012070470020704710B541EC6D
:103DB000100BFEF77DF951EC100B10BD82B0CDE970
:103DC000000121F0004001909DED000B02B051EC8C
:103DD000100B70470000000010B582B01446CDE90A
:103DE00000010023009A2360194B21F00040984203
:103DF0002ADA024328D0B0F5801FA8BF226810DA63
:103E00009FED150B53EC102B9DED000B51EC100B9F
:103E100000F0B0FBCDE900016FF0350221F0004069
:103E200022600F4B6FF31E5103EB205010442060B3
:103E300041F0FF5040F0005001909DED000B00BF9D
:103E400002B051EC100B10BD9DED000BF8E7000027
:103E50000000F07F00000000000000000000504360
:103E600002FCFFFF00B52DED048B83B041EC190B74
:103E700000F0C0FC41EC180B18EE100A18EE901A76
:103E80008DED008B002818BF0120084320F0004072
:103E9000C0F17F6000F1E040C00F14D019EE101A9D
:103EA00019EE900A8DED009B002918BF01210843EF
:103EB00020F00040C0F17F6000F1E040C00F04BF7F
:103EC0000120FCF7B7FA51EC180B03B0BDEC048BE2
:103ED00000BD000010B500290AD00878002807D0DE
:103EE00005487844FCF72CFE002801D0002010BDC6
:103EF0000248784410BD00008E11000086110000B9
:103F000010B500290AD00878002807D00548784461
:103F1000FCF716FE002801D0002010BD02487844AE
:103F200010BD00007E1100007611000081F00041FC
:103F3000704780F00040704721F00041704720F04A
:103F40000040704721F0004201F00043A2F16052AE
:103F5000B2F5801F28BFD2F17F6C0BD95FEA001C3D
:103F600043EAC20242EB507018BF704728BF20F0EE
:103F700001007047B2F5801FBCBF184670474FEA7A
:103F8000410C1CF5001F02D2084600F067BE70B558
:103F900000F09AFB00000089FFF7F6BF4FF00040E9
:103FA000A0F580007047000010B591EA030F48BFEC
:103FB00083F0004300F1F284841A71EB030C05D204
:103FC000121943EB0C03001B61EB0C014FEA115477
:103FD000A4EB135CDFF81CE11EEA430F18BF9EEA56
:103FE000445F73D021EA045123EA0E0343F48013A3
:103FF000DCF1200E32D322FA0CFE10EB0E0023FA75
:104000000CFE41EB0E01CCF1200E03FA0EFE10EB7C
:104010000E00CCF1200E51F10001B1F5801F32D21B
:1040200001EB045112FA0EF2BDE8104058BF704780
:10403000401C38BF5FEA420218BF7047002814BF17
:1040400020F0010041F100014FEA410313F5001F88
:1040500038BF7047A1F1C04100F084BB012A43EB97
:104060000302ACF1200CDCF11F0E32BF4FF0000E4A
:1040700023FA0CF310EB030041EB0451B4EB115F96
:10408000D0D0A1EB045101F58011490801EB045196
:104090005FEA30000ED350F1000038BF12FA0EFE76
:1040A00008D1BDE81040C9E7401C38BF5FEA4202B2
:1040B000CAD1C3E7BDE810404FEA410313F5001F22
:1040C00038BF7047A1F1C04100F04CBB9EEA445F8D
:1040D00008D011EA5E0FBDE8104004BF01F00041B6
:1040E00000207047BDE8104070B500F0EDFA00BF49
:1040F00064FBBE3E0000E0FF02494FF0000000F00C
:10410000B5BD00BF0000F87F491058BFC1F1404164
:104110005B1058BFC3F140438B42EFF30080704700
:104120002DE9C04130B4DFF8A0C23CEA111418BF39
:104130003CEA131400F0EC801CEA111481EA030538
:1041400044EAD57418BF1CEA131500F0C780A4EB2D
:10415000050404F17F7404F500344FF0004545EA8E
:10416000C12145EAC32341EA505143EA52534FEA81
:10417000C0204FEAC222994208BF904200F09C80C2
:104180004FEA13650FF24016765D4FEA134506FBC2
:1041900005F7C7F1807706FB07F74FEAD737A7FB8C
:1041A00003687642A7FB06CEC8F5803838BFA8F171
:1041B000010807FB08E6A6FB028C4FF0000EE6FBA9
:1041C00003CEDCF1000CCEF1004E38BFAEF1010E93
:1041D000A6FB0C584FF00007E6FB0E87A1FB08C6B4
:1041E000A0FB07CE16EB0E064FF0000545F10005CB
:1041F000E1FB076515F1E04E7EBFA4F580345FEA70
:1042000046066D4116F1800745F100054FEA172774
:1042100047EA05674FEA15254FEA0666A6F1DE462E
:10422000B6F1805F1FD9384605EBC47124F0010C4C
:1042300001EB0C11BCF1FE6F02D8F0BCBDE80081AF
:1042400024425CBF01F5801E9EEAC47F02D4F0BC0C
:10425000BDE80081244238D4A1F1C041F0BCBDE8E2
:10426000004100F07FBA4FEAD02040EA41504FEAC7
:10427000D1214FEAD22242EA43524FEAD323A7FB8D
:10428000028607FB036605FB02661EEA0E0F58BF97
:10429000A6EB0056B6EB00564FEA520E4EEAC37E2E
:1042A00018EB0E0E56EB530EBDD518EB02085E410F
:1042B0007F1C55F10005B6E74FF480154FF000075D
:1042C0004FF000064FF00008ADE701F1C04101F0EA
:1042D00000414FF00000F0BCBDE800810CEA13156E
:1042E00011EA0C1F00D00CE013EA0C1F00F025802F
:1042F0004FF0000081EA030101F00041F0BCBDE88D
:104300000081F0BCBDE8004181EA030100F02ABA57
:10431000F0BCBDE8004170B500F0D6F9097EFC3E66
:1043200000F007B84FF0000081EA030101F00041FE
:10433000704781EA030100F015BAF0BCBDE8004106
:1043400022494FF000007047FFFDFBF9F7F5F4F24A
:10435000F0EEEDEBE9E8E6E4E3E1E0DEDDDBDAD820
:10436000D7D5D4D3D1D0CFCDCCCBCAC8C7C6C5C47E
:10437000C2C1C0BFBEBDBCBBBAB9B8B7B6B5B4B395
:10438000B2B1B0AFAEADACABAAA9A8A8A7A6A5A480
:10439000A3A3A2A1A09F9F9E9D9C9C9B9A99999844
:1043A0009797969595949393929191908F8F8E8EE7
:1043B0008D8C8C8B8B8A8989888887878685858474
:1043C00084838382828181800000FF070000F87F60
:1043D00051EA030C17D41CF5801F58BFBCF5801F91
:1043E00000F10680994218BF704708BF904270479D
:1043F00007D711F5801F58BF13F5801F19D49942B4
:104400007047894270471CF5801F08D5BCF5801F96
:10441000F7D58B4218BF704708BF824270474FF4F0
:10442000001C1CEB410F38BF1CEB430F01D28B4229
:10443000704770B500F048F9922449004FF00051E0
:104440004FF08053FFF760BE4FEA41034FEA5353EA
:10445000A3F58063D3F11E03C8BFD3F1210C0CDD9B
:104460004FF0004242EAC12242EA505232FA03FCC3
:104470008CEAE17CACEBE1707047102BC4BF0020EC
:10448000704703F5787CBCF1FF3F04D06FF0004229
:1044900082EA2100704770B500F016F94992248035
:1044A00000207047F2E710F0004248BF4042B0FAE7
:1044B00080F310FA03F10AD0C3F11D0303F5806302
:1044C00002EB03524FEA415002EBD12170474FF00B
:1044D00000007047B0FA80F310FA03F10AD0C3F17C
:1044E0001D0303F580634FEA03524FEA415002EB8C
:1044F000D12170474FF000007047000051EA030CD3
:1045000017D41CF5801F58BFBCF5801F00F1068032
:10451000994218BF704708BF9042704707D711F5FE
:10452000801F58BF13F5801F19D4994270478942E4
:1045300070471CF5801F08D5BCF5801FF7D58B424E
:1045400018BF704708BF824270474FF4001C1CEB35
:10455000410F38BF1CEB430F01D28B42704770B53F
:1045600000F0B2F8922449004FF000514FF0805310
:10457000FFF7CABD70B5DFF848C11CEA111E1EBFA7
:104580001CEA13159EEA0C0F95EA0C0F00F06F80E1
:1045900081EA03044EEAD47EAE4421EA4C1123EAB8
:1045A0004C1341F4801143F48013AEF17F7EA1FBE4
:1045B000024CA0FB0365361955EB0C05A1FB034C1F
:1045C0004CF10003A0FB021C16EB0C06654153F1F5
:1045D0000003094218BF46F0010613F4007F0BD117
:1045E0004FEA03314FEA053041EA155140EA1650CF
:1045F00034036FF003020AE04FEAC3214FEAC520FB
:1046000041EA555140EA5650F4026FF0020202EBC3
:104610002E4201EB025585EACE710AD05FEA440CC6
:1046200018BF24F0004450F1000041F1000120EADD
:10463000D47040F2FE7C624500D270BDA84214BF27
:104640004FF080444FF04044002E08BF0024BEF1DC
:10465000806FA8BFA1F1C041BDE8704080F28280A8
:1046600001F1C04101F000414FF0000070470CEA39
:1046700013159EEA0C0F18BF95EA0C0F06D081EABD
:10468000030E4FF000000EF0004170BD00F01CF86A
:104690008900013E00F007B800F009B84FEA430C6A
:1046A0005FEA5C5C08D081EA030100F05BB84FEA86
:1046B000410C5FEA5C5CF6D102494FF000007047A4
:1046C0000000FF070000F87F0EF1020E2EF0030E2F
:1046D0005EF8046B364205D4012A43EB030515F559
:1046E000001F12D8012841EB010C1CF5001F0CD84B
:1046F0000ED14FEAD17C0CEB4C0C0CF1020C15F5F1
:10470000001F08BF4CEBD37C04E04FF0080C01E025
:104710004FEAD37C0CEB4C0526FA05F606F00706AB
:10472000B6F1040C06D20EEB860CBDE870404CF0DE
:10473000010C6047DFE80CF0090B02024FF000416A
:10474000A1F500214FF0000070BD19461046012868
:1047500051EB010418BFD4F5001484BF002001F010
:10476000004170BD0808A0F500114FEA3101704703
:1047700053EA010C17D41CF5801F58BFBCF5801FED
:1047800000F106808B4218BF704708BF8242704715
:1047900007D713F5801F58BF11F5801F19D48B421E
:1047A00070479B4270471CF5801F08D5BCF5801FE1
:1047B000F7D5994218BF704708BF904270474FF431
:1047C000001C1CEB430F38BF1CEB410F01D2994278
:1047D00070470FB40CBC03BCFFF7C1BE10B591EA23
:1047E000030F81F000413FF5E7AB83F0004300F099
:1047F000D5B800002DE9F04101F5801CBCF5001F83
:10480000C0F2A9804FEA115C21EA0C5141F48011F9
:104810000CF1FD0C5FEA5C0C0CF5C07C01D3400090
:104820004941890241EA905187022EA48E0EA45D6F
:104830000A0C04FB04F602FB06F6C6F14046A4FB94
:104840000662F60D46EA422606FB06F4A4FB0123A7
:104850005242C3F1404338BF5B1EA6FB0242002414
:10486000E6FB0324D20B42EA4446A6FB0623A1FB47
:1048700002E2A3FB07E4E3FB61426442C2F1404E63
:1048800038BFAEF1010EA6FB04234FF00002E6FB99
:104890000E32A2FB03463400E2FB6264A1FB06E693
:1048A000A4FB07E8E4FB61687642C8F1405838BFD2
:1048B000A8F10108A2FB06E4A3FB08E5E2FB6854AB
:1048C000A1FB05E6A7FB04E8E1FB648618F12005DF
:1048D00056F10006A80940EA8660B109A8F11B0854
:1048E00008F03F08B8F10A0F1CD901EB0C51BDE8E4
:1048F000F08100BFFCF5EEE8E2DDD8D3CFCBC7C333
:10490000C0BDB9B6B4B1AEACA9A7A5A3A19F9D9BEC
:104910009A9896959392908F8D8C8B8988878685AF
:1049200084838281A0FB006800FB01F208EB42084F
:10493000B8EB872807D5341858EB0104D5D5401CAF
:1049400051F10001D1E7341A78EB0104CDD4401EB7
:1049500071F10001C9E75FEA4C0C5FEA9C5C0DD184
:1049600005D301F000414FF00000BDE8F081BDE843
:10497000F04170B5FFF7A8FE6DDBFFBEBDE8F0416A
:1049800001494FF0000070470000F87F10B591EA30
:10499000030F48BF83F000433FF50EAB841A71EB61
:1049A000030C07D28CF0004C121943EB0C03001BD4
:1049B00061EB0C014FEA1154A4EB135CDFF89CE1AE
:1049C0001EEA430F18BF9EEA445F00F0B08021EA60
:1049D000045123EA6E035242C3EB6E0338BF5B1EE1
:1049E000DCF1200E25D322FA0CFE10EB0E0043FA68
:1049F0000CFE41EB0E01CCF1200E03FA0EFE10EB83
:104A00000E00CCF1200E51F1000129D401EB04512C
:104A100012FA0EF2BDE8104058BF7047401C1CBF90
:104A2000B2F1004F704700280CBF491C20F0010074
:104A3000704712EB020E43EB030218BF4FF0010E5A
:104A40004EEA4202ACF1200CDCF11E0E54D943FABE
:104A50000CFE10EB0E00CCF11E0E51F1FF31D5D53E
:104A60000EF1010E12FA0EFE404141EB010101EB85
:104A7000445C5FEA5C5C10D901EB045110EBDE7022
:104A800038BFBEF1004FBDE8104018BF7047002886
:104A90000CBF491C20F00100704730D24FEAD42CE3
:104AA00024F4006411F500111BD0B1FA81F20B3A25
:104AB000A41AA41ED2F12003914030FA03F3194343
:104AC000904001EBCC7101EB0451002CBDE810408B
:104AD000A8BF704701F1C04101F000414FF0000054
:104AE0007047B0FA80F310FA03F100D110BDE41A58
:104AF000173C4805C90AE4E701EB045110BD491011
:104B00004FEA300001EB0451BDE8104002E04FF0E5
:104B1000000170474A0008BF0042F8D0B2F5001FFC
:104B200028BF704701F000414FF0000070479EEA37
:104B3000445F07D011EA5E0FBDE8104004BF0021BA
:104B400000207047BDE8104070B5FFF7BDFD00BF05
:104B500040DFF63E104683F0004170470000E0FF62
:104B600043004FEAD30C4FEA3C0C43401FBF4007C1
:104B70000CF1605113F0FE4F70471CF0006F03D131
:104B80000CF00041002070470CF0004343EA5070E5
:104B900040EACC0010B500F00EF800BF0000009213
:104BA0004FEA0001FFF7DEBD4FF00041A1F5002103
:104BB0004FF0000070470EF1020E2EF0030E5EF86B
:104BC000044B244204D44FEA4102B2F17F4F11D882
:104BD0004FEA4003B3F17F4F0CD80ED14FEAD07C9F
:104BE0000CEB4C0C0CF1020CB2F17F4F08BF4CEBFC
:104BF000D17C04E04FF0080C01E04FEAD17C0CEBD3
:104C00004C0324FA03F404F00704B4F1040C06D2B4
:104C10000EEB840CBDE810404CF0010C6047DFE85F
:104C20000CF0070802024FF00040A0F5800010BD14
:104C30000846420018BFD2F1807288BF00F00040E1
:104C400010BDF1EE100A4FF6FF71C0F2C03120EA3C
:104C5000010040F04070E1EE100A7047FF2141EA88
:104C6000D050C00570474FF0000070470CF00F03A4
:104C7000092B08BF082000F05F800A2B0BD0082BFF
:104C800018BF704708BF1CF0400F0AD04FF000005B
:104C90004FF0000170471CF0400F18BF4FF000406C
:104CA00070471CF0100F08D000F07F4220F07043D6
:104CB00042EAD3014FEA4370704700F0604021F0B0
:104CC0007F4242EA000201F07F4040EA7270704782
:104CD0004FF0FF0C4CF4E06C1CEA11531CBF9CEA33
:104CE000030C9445C2BFDA4201EB02517047002B1E
:104CF0000DD0BCF1000F0FD001F00041002AA4BF7D
:104D000041F0E04141F07F614FF00000704701F059
:104D100000414FF00000704750EA01334FF09B0C08
:104D200018BF4CF0806C7FF4E7A97047FBF7A6BD75
:104D3000FBF7CEBFFCF75CB91CF4801F11D01CF44C
:104D4000E02F03D06FEACC31490070474FF040505C
:104D5000EFF3008222F0704242EA000282F3008800
:104D600070474FF000007047000000000000F03F67
:104D7000000000000000F83F0000000000000000FC
:104D80000000004003B8E23F000000000000000007
:104D900006D0CF43EBFD4C3E033333333333E33F95
:104DA000FFAB6FDBB66DDB3F4D268F515555D53FC1
:104DB00001411DA96074D13F65DBC9934A86CD3F8F
:104DC000EF4E454A287ECA3F3E5555555555C53F7D
:104DD00093BDBE166CC166BF2CDE25AF6A56113F6F
:104DE000F16BD2C541BDBBBED0A4BE726937663E71
:104DF0004FBB610567ACDD3F182D4454FB21E93FF3
:104E00009BF681D20B73EF3F182D4454FB21F93FE1
:104E1000E2652F227F2B7A3C075C143326A6813C67
:104E2000BDCBF07A8807703C075C143326A6913C12
:104E3000C4EB98999999C9BF711623FEC671BCBF7E
:104E40006D9A74AFF2B0B3BF9AFDDE522DDEADBFE6
:104E50002F6C6A2C44B4A2BF0D5555555555D53FFE
:104E6000FF8300922449C23F6E204CC5CD45B73F19
:104E7000513DD0A0660DB13FEB0D76244B7BA93F91
:104E800011DA22E33AAD903F4C5555555555A53FA3
:104E90007751C1166CC156BF9015CB19A001FA3ECF
:104EA000AD529C804F7E92BEC4B1B4BD9EEE213EF9
:104EB000D43888BEE9FAA8BD000000000000000058
:104EC00000004054FB21F93F3163621A61B4D03DC8
:104ED0000000601A61B4D03D7370032E8A19A33BA1
:104EE0000000002E8A19A33BC14920259A837B39F3
:104EF00000000000000000006E83F9A22915444E56
:104F0000D15727FCC0DD34F5999562DB4190433CD5
:104F1000AB6351FE61C5BBDE3A6E24B7E0D24D42B1
:104F2000EA2E49061C92D1091CEB1DFE3EA729B1B1
:104F3000F53582E88444BB2E26709CE9417E5FB43F
:104F400039D69139F43953838B5F849C3B28F9BD62
:104F5000FF97F81F0F9805DE8B112FEF1F6D0A5A70
:104F6000CF7E366DB709CB27663F464F2DEA5F9E51
:104F7000C7BA27757BF1E5EBF739073DEA92528A0C
:104F8000B15FFB6B085D8D1F4630035600000000CB
:104F9000A6F810111111813FD561C119A0012ABFD6
:104FA0007DFEB157E31DC73EEB9C2B8AE6E55ABE5A
:104FB0007CD5CF5A3AD9E53D02400000000000A060
:104FC0000000000005400000000000C800000000D4
:104FD0000C4000000000409C000000001940000050
:104FE0000020BCBE0000000034400000BFC91B8E82
:104FF00000000004B5400000504BCFD06607E2CF60
:10500000010000006C4100003E8251AADFEEA7348F
:1050100001000000D9420000DCB5A0E23A301F9741
:10502000FFFFFFFFB4450000FD25A0C8E9A3C14F65
:10503000FFFFFFFFFF3F00000000008000000000B6
:10504000FF3F000000000080000000002C00000076
:105050009C51000000000020F0020000A8020000A7
:10506000000000000000F07FFFFFFFFFFFFFEF7F69
:105070001C00000043000000F8FFFFFF0C000000D0
:105080000E0000000F0000002E00000010010000C4
:1050900043000000F8FFFFFF004040404040404018
:1050A00040404141414141404040404040404040FB
:1050B000404040404040404040050202020202029F
:1050C00002020202020202020220202020202020EE
:1050D0002020200202020202020290909090909002
:1050E00010101010101010101010101010101010C0
:1050F0001010101002020202020288888888888834
:10510000080808080808080808080808080808081F
:105110000808080802020202400000000000000027
:10512000000000000000000000000000000000007F
:10513000000000000000000000000000000000006F
:10514000000000000000000000000000000000005F
:10515000000000000000000000000000000000004F
:10516000000000000000000000000000000000003F
:10517000000000000000000000000000000000002F
:10518000000000000000000000000000000000001F
:0C51900000000000000000000000000013
:040000050000030DE7
:00000001FF
