:020000040000FA
:1000000070020020F1020000F9020000FB02000073
:10001000FD020000FF0200000103000000000000DC
:1000200000000000000000000000000003030000CA
:1000300005030000000000000703000009030000A2
:100040000B0300000D0300000F030000110300006C
:10005000130300001503000017030000190300003C
:100060001B0300001D0300001F030000210300000C
:1000700023030000250300002703000029030000DC
:100080002B0300002D0300002F03000031030000AC
:10009000330300003503000037030000390300007C
:1000A0003B0300003D0300003F030000410300004C
:1000B000430300004503000047030000490300001C
:1000C0004B0300004D0300004F03000051030000EC
:1000D00053030000550300005703000059030000BC
:1000E0005B0300005D030000000000005F030000F0
:1000F0006103000063030000650300006703000064
:10010000690300006B0300006D0300006F03000033
:1001100000000000000000007103000073030000F5
:100120007503000077030000790300007B030000E3
:100130007D0300007F0300008103000083030000B3
:1001400000000000000000000000000000000000AF
:100150008503000087030000890300008B03000073
:10016000000000000000000000000000000000008F
:10017000000000000000000000000000000000007F
:10018000000000000000000000000000000000006F
:10019000000000000000000000000000000000005F
:1001A000000000000000000000000000000000004F
:1001B0008D0300008F0300009103000093030000F3
:1001C0009503000097030000990300009B030000C3
:1001D0009D0300009F030000A1030000A303000093
:1001E000A5030000A7030000A90300000000000011
:1001F00000000000AB030000AD030000AF030000EF
:10020000B1030000B3030000000000000000000084
:10021000B5030000B7030000B9030000BB030000F2
:10022000BD030000BF030000C1030000C3030000C2
:10023000C5030000C7030000C9030000CB03000092
:10024000CD030000CF030000D1030000D303000062
:10025000D5030000D7030000D9030000DB03000032
:10026000DD030000DF030000E103000000F002F8FE
:1002700000F02EF80AA090E8000C82448344AAF112
:100280000107DA4501D100F023F8AFF2090EBAE810
:100290000F0013F0010F18BFFB1A43F001031847BA
:1002A00070050000800500000023002400250026C2
:1002B000103A28BF78C1FBD8520728BF30C148BFC9
:1002C0000B6070471FB500F095FA1FBD10B510BD4B
:1002D00000F0A0F81146FFF7F5FF00F067FA00F014
:1002E000BEF803B4FFF7F2FF03BC00F0C1F8000052
:1002F0003F4880473F480047FEE7FEE7FEE7FEE74E
:10030000FEE7FEE7FEE7FEE7FEE7FEE7FEE7FEE7C5
:10031000FEE7FEE7FEE7FEE7FEE7FEE7FEE7FEE7B5
:10032000FEE7FEE7FEE7FEE7FEE7FEE7FEE7FEE7A5
:10033000FEE7FEE7FEE7FEE7FEE7FEE7FEE7FEE795
:10034000FEE7FEE7FEE7FEE7FEE7FEE7FEE7FEE785
:10035000FEE7FEE7FEE7FEE7FEE7FEE7FEE7FEE775
:10036000FEE7FEE7FEE7FEE7FEE7FEE7FEE7FEE765
:10037000FEE7FEE7FEE7FEE7FEE7FEE7FEE7FEE755
:10038000FEE7FEE7FEE7FEE7FEE7FEE7FEE7FEE745
:10039000FEE7FEE7FEE7FEE7FEE7FEE7FEE7FEE735
:1003A000FEE7FEE7FEE7FEE7FEE7FEE7FEE7FEE725
:1003B000FEE7FEE7FEE7FEE7FEE7FEE7FEE7FEE715
:1003C000FEE7FEE7FEE7FEE7FEE7FEE7FEE7FEE705
:1003D000FEE7FEE7FEE7FEE7FEE7FEE7FEE7FEE7F5
:1003E000FEE7000004480549034A054B704700003A
:1003F000410500006D020000700000207002002026
:100400007000002070477047704700000048704738
:10041000000000207546FFF7F9FFAE46050069466B
:10042000534620F00700854618B020B5FFF7DAFFE5
:10043000BDE820404FF000064FF000074FF00008E5
:100440004FF0000BAC46ACE8C009ACE8C009ACE822
:10045000C009ACE8C00921F007018D46704710B50E
:100460000446AFF300802046BDE81040FFF739BFD7
:1004700001491820ABBEFEE72600020070470000CD
:1004800010B5044600F07AF8A06842F2004100017D
:10049000C0F2F401B1FBF0F12068416200218162F9
:1004A000C16A227901F060011143C16261790129B9
:1004B00004D039B9C16A21F0080102E0C16A41F0F3
:1004C0000801C162A17939B1022909D001290BD1F2
:1004D000C16A41F0860106E0C16A21F0860102E0AE
:1004E000C16A41F00601C162C16A40F2013241F0C5
:1004F0001001C162016B1143016310BD006800BFB0
:100500008169C906FCD40068C0B27047006800BFAA
:1005100082699206FCD4016070470000B0B50A7889
:10052000002A08BFB0BD04464D1E00BFD1B2204610
:10053000FFF7ECFFAA780135002AF7D1B0BD000023
:100540004EF68850CEF20000016841F4700101605F
:100550007047000080B540F260004EF20001C2F228
:100560000000C4F2000101604FF416518160602167
:10057000818000218171FFF783FF80BD0068A0F1B9
:100580008041A1F540414FEA3131072988BF7047CA
:10059000DFE801F0041B3C537E95AFDA4EF20861B0
:1005A000C4F20F010A6942F001020A610A6842F0CE
:1005B00001020A60D1F80024D207FBD0016B21F0C0
:1005C0000101016344F2204116E04EF20861C4F2D9
:1005D0000F010A6942F002020A610A6842F002024F
:1005E0000A6000BFD1F800249207FBD5016B21F00F
:1005F0000101016345F22041C4F20001086840F0A6
:100600000302084640F8FC2B1122BFE04EF20861BD
:10061000C4F20F010A6942F004020A610A6842F05A
:1006200008020A60D1F800241207FBD5016B21F003
:100630000101016347F2204116E04EF20861C4F265
:100640000F010A6942F008020A610A6842F00402D6
:100650000A6000BFD1F800245207FBD5016B21F0DE
:100660000101016346F22041C4F2000108686FF005
:10067000C00C40F0C002084640F8FC2BD1F80C2119
:10068000C02342F08852C1F80C2101F5847184E046
:100690004EF20861C4F20F010A6942F010020A61C9
:1006A0000A6842F004020A60D1F800245207FBD520
:1006B000016B21F00101016346F2204130E04EF26E
:1006C0000861C4F20F010A6942F020020A610A6857
:1006D00042F010020A6000BFD1F80024D206FBD518
:1006E000016B21F00101016344F22041C4F20201D7
:1006F00018E04EF20861C4F20F010A6942F04002AC
:100700000A610A6842F008020A6000BFD1F80024BA
:100710001207FBD5016B21F00101016347F2204173
:10072000C4F2000108686FF0300C40F03002084657
:1007300040F8FC2BD1F80C21302342F48812C1F888
:100740000C2101F5847128E04EF20861C4F20F011A
:100750000A6942F080020A610A6842F010020A60E7
:10076000D1F80024D206FBD5016B21F00101016311
:1007700044F22041C4F20201086840F00302084636
:1007800040F8FC2BD1F80C2142F01102C1F80C21E9
:1007900001F584716FF0030C032302681A430260B1
:1007A000086800EA0C00086070470000FFF7D2FEFE
:1007B00040F26004C2F2000406A12046FFF7AEFE3C
:1007C00040F26C05C2F200052046FFF797FE287044
:1007D000FAE700BF48656C6C6F2054686973206944
:1007E000732061205465737420466F7220556172C6
:1007F00074000000F1EE100A4FF6FF71C0F2C03134
:1008000020EA010040F04070E1EE100A704700005D
:10081000200800000000002070020000A802000074
:04000005000002F104
:00000001FF
